:020000023000CC
:10E000000D9472F00D949BF00D949BF00D949BF089
:10E010000D949BF00D949BF00D949BF00D949BF050
:10E020000D949BF00D949BF00D949BF00D949BF040
:10E030000D949BF00D949BF00D949BF00D949BF030
:10E040000D949BF00D949BF00D949BF00D949BF020
:10E050000D949BF00D949BF00D949BF00D949BF010
:10E060000D949BF00D949BF00D949BF00D949BF000
:10E070000D949BF00D949BF00D949BF00D949BF0F0
:10E080000D949BF00D949BF00D949BF00D949BF0E0
:10E090000D949BF00D949BF00D949BF00D949BF0D0
:10E0A0000D949BF00D949BF00D949BF00D949BF0C0
:10E0B0000D949BF00D949BF00D949BF00D949BF0B0
:10E0C0000D949BF00D949BF00D949BF00D949BF0A0
:10E0D0000D949BF00D949BF00D949BF00D949BF090
:10E0E0000D949BF011241FBECFEFD1E2DEBFCDBF58
:10E0F00001E00CBF12E0A0E0B2E0E8EAF4EE03E0D9
:10E100000BBF02C007900D92A031B107D9F722E0F2
:10E11000A0E1B2E001C01D92A231B207E1F70F9475
:10E120008FF10D9452F201E20EBF0FEF0DBF1124DB
:10E130001FBE0D948FF10D9400F08093C600809166
:10E14000C00086FFFCCF8091C00080648093C00037
:10E1500008958EBD00000DB407FEFDCF8EB5089565
:10E1600020E030E02817390749F0EFECF7E031976D
:10E17000F1F700C000002F5F3F4FF4CF089500007B
:10E18000000000000000000008951F93CF93DF936C
:10E19000CDB7DEB760970FB6F894DEBF0FBECDBF28
:10E1A000182F80E1E0E0F2E0DE01119601900D927F
:10E1B0008A95E1F7812F82958F70E1E0F0E0EC0F16
:10E1C000FD1FE80FF11D80810F949DF01F70E1E0AD
:10E1D000F0E0EC0FFD1FE10FF11D808160960FB69E
:10E1E000F894DEBF0FBECDBFDF91CF911F910D948C
:10E1F0009DF0289885E00F94A9F08FEF80FF04C070
:10E2000080E00F94A9F0FACF289A0D94BFF02898D7
:10E2100086E60F94A9F0289A0D94BFF0289889E912
:10E220000F94A9F0289A0D94BFF0289886E00F94D7
:10E23000A9F0289A0D94BFF01F93CF93DF93EB01C1
:10E24000182F289883E00F94A9F0812F0F94A9F03C
:10E250008D2F0F94A9F08C2F0F94A9F080E00F94CC
:10E26000A9F0D82F80E00F94A9F0C82F289A0F9416
:10E27000BFF08D2F0F949DF08C2F0F949DF08DE0AB
:10E280000F949DF08AE00F949DF08C2F90E09D2BD1
:10E29000DF91CF911F9108951F93CF93DF93EB01EF
:10E2A000182F0F94F9F00F9415F1289880E20F942D
:10E2B000A9F0812F0F94A9F08D2F0F94A9F08C2F26
:10E2C0000F94A9F0289A0F94BFF0DF91CF911F917E
:10E2D0000D94F9F00F931F93CF93DF93D62F172F41
:10E2E000082FC42F0F94F9F00F9415F1289882E0AD
:10E2F0000F94A9F0802F0F94A9F0812F0F94A9F00B
:10E300008D2F0F94A9F08C2F0F94A9F0289A0F94B9
:10E31000BFF0DF91CF911F910F910D94F9F001E2C1
:10E320000EBF0FEF0DBF94B7F894A89580916000D1
:10E3300088618093600010926000789493FF05C01C
:10E34000E0911002F091110219958091C000826055
:10E350008093C00080E18093C40088E18093C10075
:10E36000000087E084B981E58CBD289A000085E72C
:10E370000F949DF084E70F949DF085E60F949DF037
:10E3800083E60F949DF088E60F949DF08FE50F943F
:10E390009DF082E40F949DF082E40F949DF08DE057
:10E3A0000F949DF08AE00F949DF084E690E00F9426
:10E3B000B0F00F94F9F00F9407F10F940EF1289834
:10E3C0008FE90F94A9F080E00F94A9F0C82ED12C0A
:10E3D000E12CF12C7601DD24CC2480E00F94A9F00F
:10E3E000D82A80E00F94A9F0289AC82A87E1C81695
:10E3F00080E4D8068FEEE806F10409F040C060E042
:10E4000070E180E090E00F941CF17C018F2D0F945F
:10E41000C5F08E2D0F94C5F08DE00F949DF08AE02D
:10E420000F949DF083E2E816F80649F583E50F9412
:10E430009DF08DE00F949DF08AE00F949DF062E0D6
:10E4400070E180E090E00F941CF17C018F2D0F941F
:10E45000C5F08E2D0F94C5F08DE00F949DF08AE0ED
:10E460000F949DF08BE0E816F10449F48CE40F94CE
:10E470009DF08DE00F949DF08AE00F949DF00F9435
:10E48000BFF0EE27FF27099486E50F949DF08DE0FD
:10E490000F949DF08AE00F949DF088EC90E00F942B
:08E4A000B0F0F2CFF894FFCFB9
:10E4A80030313233343536373839414243444546C2
:040000033000E000E9
:00000001FF
