:020000023000CC
:10E000000D9472F00D949BF00D949BF00D949BF089
:10E010000D949BF00D949BF00D949BF00D949BF050
:10E020000D949BF00D949BF00D949BF00D949BF040
:10E030000D949BF00D949BF00D949BF00D949BF030
:10E040000D949BF00D949BF00D949BF00D949BF020
:10E050000D949BF00D949BF00D949BF00D949BF010
:10E060000D949BF00D949BF00D949BF00D949BF000
:10E070000D949BF00D949BF00D949BF00D949BF0F0
:10E080000D949BF00D949BF00D949BF00D949BF0E0
:10E090000D949BF00D949BF00D949BF00D949BF0D0
:10E0A0000D949BF00D949BF00D949BF00D949BF0C0
:10E0B0000D949BF00D949BF00D949BF00D949BF0B0
:10E0C0000D949BF00D949BF00D949BF00D949BF0A0
:10E0D0000D949BF00D949BF00D949BF00D949BF090
:10E0E0000D949BF011241FBECFEFD1E2DEBFCDBF58
:10E0F00001E00CBF12E0A0E0B2E0EAE1F8EE03E0DC
:10E100000BBF02C007900D92A430B107D9F722E0EF
:10E11000A4E0B2E001C01D92A630B207E1F70F946F
:10E12000B8F00D940BF401E20EBF0FEF0DBF1124F8
:10E130001FBE0D94B8F00D9400F08093C60080913E
:10E14000C00086FFFCCF8091C00080648093C00037
:10E15000089520E030E02817390749F0EFECF7E0A8
:10E160003197F1F700C000002F5F3F4FF4CF0895C3
:10E17000CF93DF93CDB7DEB7C052D1400FB6F8943E
:10E18000DEBF0FBECDBF01E20EBF0FEF0DBF94B7D4
:10E19000F894A89584B7877F84BF809160008861D8
:10E1A0008093600010926000789493FF05C0E09126
:10E1B0000402F09105021995269A2E9A84E690E0C1
:10E1C0000F94A9F08091C00082608093C00080E12C
:10E1D0008093C40088E18093C100000085E70F941C
:10E1E0009DF084E70F949DF085E60F949DF083E603
:10E1F0000F949DF088E60F949DF08FE50F949DF0AD
:10E2000082E40F949DF082E40F949DF08DE00F94D2
:10E210009DF08AE00F949DF010E0C12CD12C760186
:10E2200097EC892E9BE1992EA12CB12C00E48091D2
:10E23000C00087FD22C0111120C025E02A95F1F70A
:10E2400000004FEFC41AD40AE40AF40A11E081E294
:10E25000C8168EE4D806E104F10408F410E0C70102
:10E26000B601A50194010F94D4F3672B682B692B99
:10E27000F1F685B1802785B9DACF1F5F113009F03B
:10E2800059C2C25EDE4F1882CE51D140D12C212C12
:10E29000312C812C912C5401412C512C320120E045
:10E2A00030E080E01130C1F041E052E16AE770E017
:10E2B0009091C00097FD10C041505109610971094A
:10E2C000B9F76BBFFA01479156914F3F5F4F61F32A
:10E2D000EE27FF270994E8CF9091C600833001F123
:10E2E00020F4813071F038F014C0853029F1E0F06D
:10E2F000863099F135C09B31B9F68BE1D82E81E09B
:10E30000D3CFD926C25EDE4F9883CE51D14082E072
:10E31000CBCF292F30E0322F2227D92683E0C4CF5C
:10E32000292BD92684E0C0CF9E3009F038C2D926E7
:10E33000212C312C85E0B8CFA1014F5F5F4FE1E088
:10E34000F0E0EC0FFD1FE20DF31D9083D92624179A
:10E35000350709F426C21A01A7CF9D1120C203C0B8
:10E36000873009F0A1CF2981233109F4A8C048F5ED
:10E37000263009F496C0F0F42230B9F12330B9F117
:10E38000213009F086C11A8288E08B8381E48C8376
:10E3900086E58D8382E58E8389E48F8383E5888794
:10E3A00080E589878FE58A8782E38B87C12C0BE024
:10E3B00010E074C1213141F108F06AC02031A9F0A8
:10E3C00068C1283109F43CC048F4253109F477C00C
:10E3D00008F40EC1263109F40BC15BC12A3119F1D1
:10E3E00008F444C02B31A1F054C1C12C0FC0EA8104
:10E3F000E059E33028F4F0E0E050FE4F808101C0A6
:10E4000080E01A828B8340C0CC24C3941A8244C11A
:10E410008D81882321F0813021F488E925C08EE1A7
:10E4200023C081E021C01A82E1E0F0E089E080931E
:10E43000570084918B831C82C12C04E010E02EC114
:10E440008B81803559F48C81883021F489E0E2E0B9
:10E45000F0E007C089E0E0E0F0E003C0E3E0F0E0D6
:10E4600089E08093570084911A82E4CF8D81836C78
:10E4700099E0E1E0F0E0082E90935700E89507B6A8
:10E4800000FCFDCF1A821B82C12C03E010E006C104
:10E4900080EC8A83C12C02E010E0812C912C540185
:10E4A000FDC06A817B818C819D810F94F6F32B01E5
:10E4B0003C01440C551C661C771C1A82ECC0EA8097
:10E4C000FB80FE24EF24FE24233109F05AC081147E
:10E4D000F0EC9F06F3E0AF06B10498F407B600FC39
:10E4E000FDCFF999FECF23E0F401A0925B002093C9
:10E4F0005700E89507B600FCFDCF4FEF941AA40A29
:10E50000B40A8B85DE011196930182011B964C9112
:10E510001B9790E0942B07B600FCFDCFF999FECF36
:10E5200041E00C01F80120935B0040935700E8950F
:10E5300011240E5F1F4F2F4F3F4F82E0E81AF10862
:10E540001296E114F10421F01A968C911A97DECFFD
:10E5500007B600FCFDCFF999FECF95E0F20160927D
:10E560005B0090935700E89507B600FCFDCF07B617
:10E5700000FCFDCFF999FECF81E180935700E8952B
:10E5800033C0D301C201B695A795979587956C01C5
:10E59000FE013B96C15EDE4FF983E883CF51D14047
:10E5A00000E010E00E151F05A9F0C15EDE4FE88106
:10E5B000F981CF51D1406191C15EDE4FF983E8838B
:10E5C000CF51D140C8018C0D9D1D0F94FDF30F5FFD
:10E5D0001F4FE8CF20E030E0000F111F221F331F34
:10E5E000040D151D261D371D1A822801390153C03F
:10E5F0008A819B819827892798278C010D5F1F4F5F
:10E600001A822431C1F4DE0111966BBEF20127910A
:10E61000369112962C931297FD01349613963C93E3
:10E62000139722E0420E511C611C711C0297129636
:10E63000009759F72BC0FE0131969F01280F391F13
:10E64000B301A20141BDC52ED62EE72EFF24C2BCC8
:10E650004F5F5F4F6F4F7F4FF89AA0B5A2833196FF
:10E660002E173F0779F7AC014150510960E070E087
:10E670004F5F5F4F6F4F7F4F440E551E661E771ED4
:10E68000E3E0F0E0EC0FFD1FE80FF91F1082C12C52
:10E6900005C080EC8A83C12C02E010E08BE10F946E
:10E6A0009DF0C25EDE4F8881CE51D1400F949DF027
:10E6B000812F0F949DF0802F0F949DF085E1C25E15
:10E6C000DE4FD880CE51D140D826D0268EE00F9490
:10E6D0009DF0D126CE0101967C01080F191F0E1561
:10E6E0001F0591F0F70121917F01C15EDE4F288364
:10E6F000CF51D140822F0F949DF0C15EDE4F4881F3
:10E70000CF51D140D426EBCF8D2D0F949DF0C25E1A
:10E71000DE4F8881CE51D1408F5FC25EDE4F88834D
:10E72000CE51D14095B180E4892785B910E0CC2045
:10E7300009F4B5CD82E60F949DF089E70F949DF022
:10E7400080E20F949DF083E70F949DF081E60F9493
:10E750009DF088E60F949DF08DE00F949DF08AE087
:10E760000F949DF084E690E00F94A9F026982E98DF
:10E7700084E690E00F94A9F000008091C0008D7FA6
:10E780008093C00007B600FCFDCFF999FECF81E170
:10E7900080935700E895EE27FF270994FFCF80E08C
:10E7A00083CD190186E080CDA1E21A2EAA1BBB1BE6
:10E7B000FD010DC0AA1FBB1FEE1FFF1FA217B3074D
:10E7C000E407F50720F0A21BB30BE40BF50B661F63
:10E7D000771F881F991F1A9469F760957095809527
:10E7E00090959B01AC01BD01CF0108956927962743
:10E7F00069277827872778270895262FF999FECF4C
:10E800001FBA92BD81BD20BD0FB6F894FA9AF99A4D
:0AE810000FBE01960895F894FFCFA3
:04E81A000F020A00DF
:040000033000E000E9
:00000001FF
