:020000023000CC
:10E000000D9472F00D949BF00D949BF00D949BF089
:10E010000D949BF00D949BF00D949BF00D949BF050
:10E020000D949BF00D949BF00D949BF00D949BF040
:10E030000D949BF00D949BF00D949BF00D949BF030
:10E040000D949BF00D949BF00D949BF00D949BF020
:10E050000D949BF00D949BF00D949BF00D949BF010
:10E060000D949BF00D949BF00D949BF00D949BF000
:10E070000D949BF00D949BF00D949BF00D949BF0F0
:10E080000D949BF00D949BF00D949BF00D949BF0E0
:10E090000D949BF00D949BF00D949BF00D949BF0D0
:10E0A0000D949BF00D949BF00D949BF00D949BF0C0
:10E0B0000D949BF00D949BF00D949BF00D949BF0B0
:10E0C0000D949BF00D949BF00D949BF00D949BF0A0
:10E0D0000D949BF00D949BF00D949BF00D949BF090
:10E0E0000D949BF011241FBECFEFD1E2DEBFCDBF58
:10E0F00001E00CBF12E0A0E0B2E0E4E4FBEE03E0DC
:10E100000BBF02C007900D92A430B107D9F722E0EF
:10E11000A4E0B2E001C01D92A630B207E1F70F946F
:10E120002BF10D94A0F501E20EBF0FEF0DBF1124EE
:10E130001FBE0D942BF10D9400F08EBD00000DB4A8
:10E1400007FEFDCF8EB508958093C6008091C00074
:10E1500086FFFCCF8091C00080648093C00008954A
:10E1600020E030E02817390749F0EFECF7E031976D
:10E17000F1F700C000002F5F3F4FF4CF089500007B
:10E1800000000000000000000895289885E00F942A
:10E190009DF08FEF80FF04C080E00F949DF0FACFD8
:10E1A000289A0D94BFF0289886E60F949DF0289A3F
:10E1B0000D94BFF0289889E90F949DF0289A0D944A
:10E1C000BFF0289886E00F949DF0289A0D94BFF038
:10E1D0001F93CF93DF93EB01182F0F94C5F00F948B
:10E1E000E1F0289880E20F949DF0812F0F949DF02C
:10E1F0008D2F0F949DF08C2F0F949DF0289A0F94E3
:10E20000BFF0DF91CF911F910D94C5F00F931F9335
:10E21000CF93DF93D62F172F082FC42F0F94C5F05D
:10E220000F94E1F0289882E00F949DF0802F0F94D6
:10E230009DF0812F0F949DF08D2F0F949DF08C2FCA
:10E240000F949DF0289A0F94BFF0DF91CF911F910A
:10E250000F910D94C5F0CF93DF93CDB7DEB7C252C7
:10E26000D1400FB6F894DEBF0FBECDBF01E20EBFA6
:10E270000FEF0DBF94B7F894A89584B7877F84BF3C
:10E2800080916000886180936000109260007894B3
:10E2900093FF05C0E0910402F0910502199587E013
:10E2A00084B981E58CBD289A00000F94C5F00F94C5
:10E2B000D3F00F94DAF028988FE90F949DF080E066
:10E2C0000F949DF0C82ED12CE12CF12C7601DD2489
:10E2D000CC2480E00F949DF0D82A80E00F949DF02C
:10E2E000289AC82A27E1C21620E4D2062FEEE206B9
:10E2F000F10421F0812C912C540115C1289883E060
:10E300000F949DF080E00F949DF080E10F949DF0BC
:10E3100080E00F949DF080E00F949DF0082F10E0B6
:10E32000102F002780E00F949DF0082B289A0F945F
:10E33000BFF003321342F1F6289883E00F949DF06A
:10E3400080E00F949DF080E10F949DF082E00F94A7
:10E350009DF080E00F949DF0682E712C762C662441
:10E3600080E00F949DF0682A289A0F94BFF0812CCA
:10E37000912C5401212C51E1352E412C512CCE01F0
:10E380008F5F9E4FC25EDE4F99838883CE51D1400E
:10E39000289883E00F949DF07501640190E2D90EF6
:10E3A000E11CF11C8E2D0F949DF08D2D0F949DF08E
:10E3B00080E00F949DF08E010F5F1F4F6801E12CEC
:10E3C000F12C80E00F949DF0F60181936F01E80E2F
:10E3D000F11CC25EDE4F88819981CE51D1408E17EB
:10E3E0009F0779F7289A0F94BFF0289883E00F943D
:10E3F0009DF080E00F949DF0832D0F949DF0822D71
:10E400000F949DF080E00F949DF0C82ED12CDC2C51
:10E41000CC2480E00F949DF0C82A289A0F94BFF076
:10E42000EC14FD0409F068C0811490EC990693E0A7
:10E43000A906B10409F460C007B600FCFDCFF99944
:10E44000FECF83E0F401A0925B0080935700E89533
:10E4500007B600FCFDCFB501A401F801818190E071
:10E46000982F88272081822B07B600FCFDCFF999D1
:10E47000FECF21E00C01FA0160935B00209357006E
:10E48000E89511244E5F5F4F6F4F7F4F00000E5F86
:10E490001F4FC25EDE4F88819981CE51D1408017D7
:10E4A0009107D9F6D501C4019F5FAF4FBF4F07B6A3
:10E4B00000FCFDCFF999FECF25E0F401A0925B00AE
:10E4C00020935700E89507B600FCFDCF07B600FC87
:10E4D000FDCFF999FECF41E140935700E895E2E086
:10E4E0002E0E311C411C511C0000F1E06F1A710806
:10E4F0004C015D0109F04CCF0F94BFF060E070E17A
:10E5000080E090E00F94E8F000004FE460E072E0FB
:10E5100080E090E00F9406F14BE461E072E080E06F
:10E5200090E00F9406F1269A2E9A84E690E00F94DC
:10E53000B0F08091C00082608093C00080E1809341
:10E54000C40088E18093C100000085E70F94A4F027
:10E5500084E70F94A4F085E60F94A4F083E60F946B
:10E56000A4F088E60F94A4F08FE50F94A4F082E461
:10E570000F94A4F082E40F94A4F08DE00F94A4F023
:10E580008AE00F94A4F010E0C12CD12C760197EC16
:10E59000492E9BE1592E612C712C00E48091C00022
:10E5A00087FD22C0111120C025E02A95F1F7000057
:10E5B0004FEFC41AD40AE40AF40A11E081E2C81643
:10E5C0008EE4D806E104F10408F410E0C701B601B6
:10E5D000A30192010F9469F5672B682B692BF1F663
:10E5E00085B1802785B9DACF1F5F113009F052C29B
:10E5F00024013501C05EDE4F1882C052D140D12CBB
:10E60000212C312C20E030E080E01130C1F041E0DD
:10E6100052E16AE770E09091C00097FD10C0415050
:10E62000510961097109B9F76BBFFA014791569118
:10E630004F3F5F4F61F3EE27FF270994E8CF90919A
:10E64000C600833001F120F4813071F038F014C03D
:10E65000853029F1E0F0863099F135C09B31B9F66B
:10E660008BE1D82E81E0D3CFD926C05EDE4F9883D0
:10E67000C052D14082E0CBCF292F30E0322F222769
:10E68000D92683E0C4CF292BD92684E0C0CF9E3081
:10E6900009F01AC2D92685E0212C312CB8CFA1016E
:10E6A0004F5F5F4FE1E0F0E0EC0FFD1FE20DF31D67
:10E6B0009083D9262417350709F408C21A01A7CF79
:10E6C0009D1102C203C0873009F0A1CF29812331F7
:10E6D00009F4A6C040F5263009F494C0E8F42230CD
:10E6E000A9F12330A9F1213009F083C11A8288E011
:10E6F0008B8381E48C8386E58D8382E58E8389E438
:10E700008F8383E5888780E589878FE58A8782E321
:10E710008B870BE010E071C1213139F108F069C03D
:10E720002031A1F066C12831C9F148F4253109F43E
:10E7300077C008F40EC1263109F40BC15AC12A3141
:10E7400029F108F445C02B31B1F053C1C12C0FC0E1
:10E75000EA81E059E33028F4F0E0E050FE4F808198
:10E7600001C080E01A828B8341C0CC24C3941A82FA
:10E7700002E010E043C18D81882321F0813021F433
:10E7800088E920C08EE11EC081E01CC01A82E1E051
:10E79000F0E089E080935700849115C08B8180352B
:10E7A00059F48C81883021F489E0E2E0F0E007C080
:10E7B00089E0E0E0F0E003C0E3E0F0E089E080938E
:10E7C000570084911A828B831C8204E010E015C1EB
:10E7D0008D81836C99E0E1E0F0E0082E9093570082
:10E7E000E89507B600FCFDCF1A821B8203E010E01B
:10E7F00004C180EC8A8302E010E0C12C812C912CB2
:10E800005401FCC06A817B818C819D810F948BF5C2
:10E810002B013C01440C551C661C771C1A82EBC072
:10E82000EA80FB80FE24EF24FE24233109F05AC045
:10E830008114F0EC9F06F3E0AF06B10498F407B63C
:10E8400000FCFDCFF999FECF23E0F401A0925B001C
:10E8500020935700E89507B600FCFDCF4FEF941AC0
:10E86000A40AB40A8B85DE011196930182011B96DE
:10E870004C911B9790E0942B07B600FCFDCFF999C3
:10E88000FECF41E00C01F80120935B00409357005C
:10E89000E89511240E5F1F4F2F4F3F4F82E0E81A7B
:10E8A000F1081296E114F10421F01A968C911A974E
:10E8B000DECF07B600FCFDCFF999FECF95E0F2015F
:10E8C00060925B0090935700E89507B600FCFDCF7F
:10E8D00007B600FCFDCFF999FECF81E18093570088
:10E8E000E89533C0D301C201B695A7959795879552
:10E8F0006C01FE013B96CF5DDE4FF983E883C15288
:10E90000D14000E010E00E151F05A9F0CF5DDE4FED
:10E91000E881F981C152D1406191CF5DDE4FF98329
:10E92000E883C152D140C8018C0D9D1D0F9492F512
:10E930000F5F1F4FE8CF20E030E0000F111F221FB4
:10E94000331F040D151D261D371D1A82280139019C
:10E9500052C08A819B819827892798278C010D5F57
:10E960001F4F1A822431C1F4DE0111966BBEF201F1
:10E970002791369112962C931297FD013496139697
:10E980003C93139722E0420E511C611C711C0297AC
:10E990001296009759F72BC0FE0131969F01280F60
:10E9A000391FB301A20141BDC52ED62EE72EFF248B
:10E9B000C2BC4F5F5F4F6F4F7F4FF89AA0B5A283E5
:10E9C00031962E173F0779F7AC014150510960E0AD
:10E9D00070E04F5F5F4F6F4F7F4F440E551E661EB6
:10E9E000771EE3E0F0E0EC0FFD1FE80FF91F108247
:10E9F00004C080EC8A8302E010E0C12C8BE10F940C
:10EA0000A4F0C05EDE4F8881C052D1400F94A4F0C4
:10EA1000812F0F94A4F0802F0F94A4F085E1C05EA5
:10EA2000DE4FD880C052D140D826D0268EE00F9439
:10EA3000A4F0D126CE0101967C01080F191F0E15F6
:10EA40001F0591F0F70121917F01CF5DDE4F2883F3
:10EA5000C152D140822F0F94A4F0CF5DDE4F488188
:10EA6000C152D140D426EBCF8D2D0F94A4F0C05EBF
:10EA7000DE4F8881C052D1408F5FC05EDE4F8883F9
:10EA8000C052D14095B180E4892785B910E0CC20EF
:10EA900009F4B8CD26982E9884E690E00F94B0F053
:10EAA0000F94BFF08091C0008D7F8093C00007B6A7
:10EAB00000FCFDCFF999FECF81E180935700E895E6
:10EAC000EE27FF270994FFCF80E0A1CD190186E052
:10EAD0009ECDA1E21A2EAA1BBB1BFD010DC0AA1FD1
:10EAE000BB1FEE1FFF1FA217B307E407F50720F0B7
:10EAF000A21BB30BE40BF50B661F771F881F991F32
:10EB00001A9469F760957095809590959B01AC017A
:10EB1000BD01CF01089569279627692778278727A0
:10EB200078270895262FF999FECF1FBA92BD81BD8F
:10EB300020BD0FB6F894FA9AF99A0FBE019608957F
:04EB4000F894FFCF77
:04EB44000F020A00B2
:040000033000E000E9
:00000001FF
