:020000023000CC
:10E000000D9472F00D948EF00D948EF00D948EF0B0
:10E010000D948EF00D948EF00D948EF00D948EF084
:10E020000D948EF00D948EF00D948EF00D948EF074
:10E030000D948EF00D948EF00D948EF00D948EF064
:10E040000D948EF00D948EF00D948EF00D948EF054
:10E050000D948EF00D948EF00D948EF00D948EF044
:10E060000D948EF00D948EF00D948EF00D948EF034
:10E070000D948EF00D948EF00D948EF00D948EF024
:10E080000D948EF00D948EF00D948EF00D948EF014
:10E090000D948EF00D948EF00D948EF00D948EF004
:10E0A0000D948EF00D948EF00D948EF00D948EF0F4
:10E0B0000D948EF00D948EF00D948EF00D948EF0E4
:10E0C0000D948EF00D948EF00D948EF00D948EF0D4
:10E0D0000D948EF00D948EF00D948EF00D948EF0C4
:10E0E0000D948EF011241FBECFEFD1E2DEBFCDBF65
:10E0F00001E00CBF22E0A0E0B2E001C01D92A2301E
:10E10000B207E1F70F9436F10D94C3F201E20EBFAE
:10E110000FEF0DBF11241FBE0D9436F10D9400F0CA
:10E120008EBD00000DB407FEFDCF8EB5089520E032
:10E1300030E02817390749F0EFECF7E03197F1F7B5
:10E1400000C000002F5F3F4FF4CF08950000000093
:10E150000000000000000895289885E00F9490F0DA
:10E160008FEF80FF04C080E00F9490F0FACF289AE0
:10E170000D94A6F0289886E60F9490F0289A0D94B6
:10E18000A6F0289889E90F9490F0289A0D94A6F0AB
:10E19000289886E00F9490F0289A0D94A6F01F938B
:10E1A000CF93DF93EB01182F289883E00F9490F022
:10E1B000812F0F9490F08D2F0F9490F08C2F0F944F
:10E1C00090F080E00F9490F0D82F80E00F9490F0C2
:10E1D000C82F289A0F94A6F08C2F90E09D2BDF91EA
:10E1E000CF911F9108951F93CF93DF93EB01182FC9
:10E1F0000F94ACF00F94C8F0289880E20F9490F040
:10E20000812F0F9490F08D2F0F9490F08C2F0F94FE
:10E2100090F0289A0F94A6F0DF91CF911F910D9462
:10E22000ACF00F931F93CF93DF93D62F172F082FA8
:10E23000C42F0F94ACF00F94C8F0289882E00F948C
:10E2400090F0802F0F9490F0812F0F9490F08D2FED
:10E250000F9490F08C2F0F9490F0289A0F94A6F0C2
:10E26000DF91CF911F910F910D94ACF0CF93DF937D
:10E27000CDB7DEB7C650D1400FB6F894DEBF0FBEA3
:10E28000CDBF01E20EBF0FEF0DBF94B7F894A89574
:10E2900080916000886180936000109260007894A3
:10E2A00093FF05C0E0910002F0910102199587E00B
:10E2B00084B981E58CBD289A00000F94ACF00F94CE
:10E2C000BAF00F94C1F028988FE90F9490F080E095
:10E2D0000F9490F0C82ED12CE12CF12C7601DD2486
:10E2E000CC2480E00F9490F0D82A80E00F9490F036
:10E2F000289AC82A27E1C21620E4D2062FEEE206A9
:10E30000F10409F02FC1289883E00F9490F080E089
:10E310000F9490F080E10F9490F080E00F9490F0D3
:10E3200080E00F9490F0082F10E0102F002780E07D
:10E330000F9490F0082B289A0F94A6F00332134202
:10E3400009F010C1289883E00F9490F080E00F94BA
:10E3500090F080E10F9490F082E00F9490F080E0D4
:10E360000F9490F0082F10E0102F002780E00F94FA
:10E3700090F0F801E82BCD5FDE4FF983E883C350BE
:10E38000D140289A0F94A6F0812C51E1952EA12C12
:10E39000B12CC12C60E2D62EE12CF12C9E012F5F16
:10E3A0003E4FCF5FDE4F39832883C150D1402601D5
:10E3B000370130E2531A61087108289883E00F94FE
:10E3C00090F08E2D0F9490F08D2D0F9490F080E0B2
:10E3D0000F9490F0CE0101961C018C01CB5FDE4FB3
:10E3E00019821882C550D14080E00F9490F0F80156
:10E3F00081938F01CB5FDE4F28813981C550D14099
:10E40000280F311DCB5FDE4F39832883C550D140A3
:10E41000CF5FDE4F88819981C150D140E817F9075D
:10E4200019F7289A0F94A6F0289883E00F9490F09B
:10E4300080E00F9490F0892D0F9490F0882D0F9428
:10E4400090F080E00F9490F0082F10E0102F00273C
:10E4500080E00F9490F0082B289A0F94A6F0CB5FE1
:10E46000DE4FE881F981C550D140E017F10709F08E
:10E4700071C0C114F0EEDF06F3E0EF06F10409F419
:10E4800069C007B600FCFDCFF999FECF83E0F20129
:10E4900060925B0080935700E89507B600FCFDCFC3
:10E4A000B301A201F101818190E0982F882720819A
:10E4B000822B07B600FCFDCFF999FECF21E00C01BD
:10E4C000FA0160935B0020935700E89511244E5F9A
:10E4D0005F4F6F4F7F4F000032E0230E311CCF5F44
:10E4E000DE4F88819981C150D14082159305D1F6C4
:10E4F00007B600FCFDCFF999FECF95E0F2016092DE
:10E500005B0090935700E89507B600FCFDCF07B677
:10E5100000FCFDCFF999FECFE1E1E0935700E895CB
:10E52000FFEFDF1AEF0AFF0A22E0820E911CA11C06
:10E53000B11C0000CD5FDE4F88819981C350D1406E
:10E540000197CD5FDE4F99838883C350D140892BDB
:10E5500009F02DCF0F94A6F060E070E180E090E02C
:10E560000F94F3F00F94A6F007B600FCFDCFF999D5
:10E57000FECF81E180935700E895EE27FF270994AD
:0AE580000F94A6F0FDCFF894FFCF32
:040000033000E000E9
:00000001FF
