:020000023000CC
:10E000000D9472F00D948EF00D948EF00D948EF0B0
:10E010000D948EF00D948EF00D948EF00D948EF084
:10E020000D948EF00D948EF00D948EF00D948EF074
:10E030000D948EF00D948EF00D948EF00D948EF064
:10E040000D948EF00D948EF00D948EF00D948EF054
:10E050000D948EF00D948EF00D948EF00D948EF044
:10E060000D948EF00D948EF00D948EF00D948EF034
:10E070000D948EF00D948EF00D948EF00D948EF024
:10E080000D948EF00D948EF00D948EF00D948EF014
:10E090000D948EF00D948EF00D948EF00D948EF004
:10E0A0000D948EF00D948EF00D948EF00D948EF0F4
:10E0B0000D948EF00D948EF00D948EF00D948EF0E4
:10E0C0000D948EF00D948EF00D948EF00D948EF0D4
:10E0D0000D948EF00D948EF00D948EF00D948EF0C4
:10E0E0000D948EF011241FBECFEFD1E2DEBFCDBF65
:10E0F00001E00CBF22E0A0E0B2E001C01D92A2301E
:10E10000B207E1F70F941EF10D94ECF201E20EBF9D
:10E110000FEF0DBF11241FBE0D941EF10D9400F0E2
:10E120008EBD00000DB407FEFDCF8EB5089580931F
:10E13000C6008091C00086FFFCCF8091C000806443
:10E140008093C000089520E030E02817390749F097
:10E15000EFECF7E03197F1F700C000002F5F3F4F81
:10E16000F4CF0895000000000000000000000895B2
:10E17000289885E00F9490F08FEF80FF04C080E036
:10E180000F9490F0FACF289A0D94B2F0289886E672
:10E190000F9490F0289A0D94B2F0289889E90F9482
:10E1A00090F0289A0D94B2F0289886E00F9490F0A1
:10E1B000289A0D94B2F01F93CF93DF93EB01182FA1
:10E1C0000F94B8F00F94D4F0289880E20F9490F058
:10E1D000812F0F9490F08D2F0F9490F08C2F0F942F
:10E1E00090F0289A0F94B2F0DF91CF911F910D9487
:10E1F000B8F00F931F93CF93DF93D62F172F082FCD
:10E20000C42F0F94B8F00F94D4F0289882E00F94A4
:10E2100090F0802F0F9490F0812F0F9490F08D2F1D
:10E220000F9490F08C2F0F9490F0289A0F94B2F0E6
:10E23000DF91CF911F910F910D94B8F0CF93DF93A1
:10E24000CDB7DEB7C352D1400FB6F894DEBF0FBED4
:10E25000CDBF01E20EBF0FEF0DBF94B7F894A895A4
:10E2600084B7877F84BF809160008861809360005D
:10E2700010926000789493FF05C0E0910002F09145
:10E280000102199587E084B981E58CBD289A0000C8
:10E290000F94B8F00F94C6F00F94CDF028988FE942
:10E2A0000F9490F080E00F9490F0C82ED12CE12CC8
:10E2B000F12C7601DD24CC2480E00F9490F0D82A54
:10E2C00080E00F9490F0289AC82A27E1C21620E433
:10E2D000D2062FEEE206F10409F03EC1289883E051
:10E2E0000F9490F080E00F9490F080E10F9490F004
:10E2F00080E00F9490F080E00F9490F0082F10E0F1
:10E30000102F002780E00F9490F0082B289A0F948C
:10E31000B2F00332134209F01FC1289883E00F9432
:10E3200090F080E00F9490F080E10F9490F082E004
:10E330000F9490F080E00F9490F0082F10E0102FD1
:10E34000002780E00F9490F0F801E82BC05EDE4FCC
:10E35000F983E883C052D140289A0F94B2F0812CFF
:10E3600051E1952EA12CB12CC12C60E2D62EE12CCE
:10E37000F12C9E012F5F3E4FC25EDE4F3983288312
:10E38000CE51D1402601370130E2531A610871089D
:10E39000289883E00F9490F08E2D0F9490F08D2D9F
:10E3A0000F9490F080E00F9490F0CE0101961C0144
:10E3B0008C01CE5DDE4F19821882C252D14080E0BE
:10E3C0000F9490F0F80181938F01CE5DDE4F28818C
:10E3D0003981C252D140280F311DCE5DDE4F3983C5
:10E3E0002883C252D140C25EDE4F88819981CE51CE
:10E3F000D140E817F90719F7289A0F94B2F0289836
:10E4000083E00F9490F080E00F9490F0892D0F94AA
:10E4100090F0882D0F9490F080E00F9490F0082FEA
:10E4200010E0102F002780E00F9490F0082B289A1E
:10E430000F94B2F0CE5DDE4FE881F981C252D14037
:10E44000E017F10709F071C0C114F0EEDF06F3E048
:10E45000EF06F10409F469C007B600FCFDCFF99995
:10E46000FECF83E0F20160925B0080935700E89555
:10E4700007B600FCFDCFB301A201F101818190E05C
:10E48000982F88272081822B07B600FCFDCFF999B1
:10E49000FECF21E00C01FA0160935B00209357004E
:10E4A000E89511244E5F5F4F6F4F7F4F000032E0C1
:10E4B000230E311CC25EDE4F88819981CE51D1403E
:10E4C00082159305D1F607B600FCFDCFF999FECF72
:10E4D00095E0F20160925B0090935700E89507B6D3
:10E4E00000FCFDCF07B600FCFDCFF999FECFE1E1BE
:10E4F000E0935700E895FFEFDF1AEF0AFF0A22E0EA
:10E50000820E911CA11CB11C0000C05EDE4F8881F0
:10E510009981C052D1400197C05EDE4F99838883B4
:10E52000C052D140892B09F02DCF0F94B2F060E09A
:10E5300070E180E090E00F94DBF000004FE460E0D9
:10E5400072E080E090E00F94F9F04BE461E072E05B
:10E5500080E090E00F94F9F08091C0008260809399
:10E56000C00080E18093C40088E18093C100000076
:10E5700085E70F9497F084E70F9497F085E60F9462
:10E5800097F083E60F9497F088E60F9497F08FE565
:10E590000F9497F082E40F9497F082E40F9497F031
:10E5A0008DE00F9497F08AE00F9497F00F94B2F0FB
:10E5B0008091C0008D7F8093C00007B600FCFDCF26
:10E5C000F999FECF81E180935700E895EE27FF2768
:0CE5D00009940F94B2F0FDCFF894FFCF37
:040000033000E000E9
:00000001FF
