:020000023000CC
:10E000000D9472F00D949BF00D949BF00D949BF089
:10E010000D949BF00D949BF00D949BF00D949BF050
:10E020000D949BF00D949BF00D949BF00D949BF040
:10E030000D949BF00D949BF00D949BF00D949BF030
:10E040000D949BF00D949BF00D949BF00D949BF020
:10E050000D949BF00D949BF00D949BF00D949BF010
:10E060000D949BF00D949BF00D949BF00D949BF000
:10E070000D949BF00D949BF00D949BF00D949BF0F0
:10E080000D949BF00D949BF00D949BF00D949BF0E0
:10E090000D949BF00D949BF00D949BF00D949BF0D0
:10E0A0000D949BF00D949BF00D949BF00D949BF0C0
:10E0B0000D949BF00D949BF00D949BF00D949BF0B0
:10E0C0000D949BF00D949BF00D949BF00D949BF0A0
:10E0D0000D949BF00D949BF00D949BF00D949BF090
:10E0E0000D949BF011241FBECFEFD1E2DEBFCDBF58
:10E0F00001E00CBF12E0A0E0B2E0EEE4F8EE03E0D5
:10E100000BBF02C007900D92A430B107D9F722E0EF
:10E11000A4E0B2E001C01D92A630B207E1F70F946F
:10E12000B8F00D9425F401E20EBF0FEF0DBF1124DE
:10E130001FBE0D94B8F00D9400F08093C60080913E
:10E14000C00086FFFCCF8091C00080648093C00037
:10E15000089520E030E02817390749F0EFECF7E0A8
:10E160003197F1F700C000002F5F3F4FF4CF0895C3
:10E17000CF93DF93CDB7DEB7C052D1400FB6F8943E
:10E18000DEBF0FBECDBF01E20EBF0FEF0DBF94B7D4
:10E19000F894A89580916000886180936000109247
:10E1A0006000789493FF05C0E0910402F0910502AD
:10E1B0001995279A2F9A8091C00082608093C000A1
:10E1C00080E18093C40088E18093C100000085E76E
:10E1D0000F949DF084E70F949DF085E60F949DF0D9
:10E1E00083E60F949DF088E60F949DF08FE50F94E1
:10E1F0009DF082E40F949DF082E40F949DF08DE0F9
:10E200000F949DF08AE00F949DF000E010E0C12C87
:10E21000D12C760197EC892E9BE1992EA12CB12C63
:10E220008091C00087FD26C00115110519F525E074
:10E230002A95F1F700004FEFC41AD40AE40AF40A51
:10E2400091E080E0E1E2CE16EEE4DE06E104F104C6
:10E2500008F490E0092F182FC701B601A501940119
:10E260000F94EEF3672B682B692BD1F685B180589C
:10E2700085B9D6CF0F5F1F4F0130110509F075C268
:10E28000C25EDE4F1882CE51D140D12C212C312CD0
:10E29000812C912C5401412C512C320120E030E092
:10E2A00080E001301105C1F041E052E16AE770E021
:10E2B0009091C00097FD10C041505109610971094A
:10E2C000B9F76BBFFA01479156914F3F5F4F61F32A
:10E2D000EE27FF270994E8CF9091C600833001F123
:10E2E00020F4813071F038F014C0853029F1E0F06D
:10E2F000863099F135C09B3109F467C200E010E027
:10E30000D0CFD926C25EDE4F9883CE51D14082E075
:10E31000F5CF292F30E0322F2227D92683E0EECF08
:10E32000292BD92684E0EACF9E3009F052C2D926A3
:10E33000212C312C85E0E2CFA1014F5F5F4FE1E05E
:10E34000F0E0EC0FFD1FE20DF31D9083D92624179A
:10E35000350709F440C21A01D1CF9D113AC202C05B
:10E36000873061F62981233109F4D8C058F5263069
:10E3700009F4C6C0F8F42230E9F1233009F467C08B
:10E38000213009F0A1C11A8288E08B8381E48C835B
:10E3900086E58D8382E58E8389E48F8383E5888794
:10E3A00080E589878FE58A8782E38B87C12C0BE024
:10E3B00010E08FC1213109F457C008F098C0203116
:10E3C000C9F082C1283109F46BC048F4253109F441
:10E3D000A5C008F428C1263109F425C175C12A3128
:10E3E00009F451C008F471C02B3109F441C02D313A
:10E3F00019F06AC1C12C3AC09D81903339F48F81E4
:10E400008823B1F08130B1F488E917C0892F807575
:10E4100099F0903521F489E0E0E0F0E005C098350E
:10E4200059F4E3E0F0E089E080935700849105C05F
:10E430008EE103C081E001C080E01A821B829C83D0
:10E440001D828E831F82C12C07E010E042C1EA8149
:10E45000E059E33028F4F0E0E050FE4F808101C045
:10E4600080E01A828B833FC0CC24C3941A822FC1D0
:10E470008D81882321F0813021F488E924C08EE148
:10E4800022C081E020C01A82E1E0F0E089E08093C0
:10E49000570084918B831C82C12C04E010E019C1C9
:10E4A0008B81803551F48C81883019F4E2E0F0E002
:10E4B00006C089E0E0E0F0E003C0E3E0F0E089E0DE
:10E4C0008093570084911A82E5CF8D81836C99E007
:10E4D000E1E0F0E0082E90935700E89507B600FCC5
:10E4E000FDCF1A821B82C12C03E010E0F2C080EC49
:10E4F0008A83C12C02E010E0812C912C5401E9C0E8
:10E500006A817B818C819D810F9410F42B013C01E9
:10E51000440C551C661C771C1A82D8C0EA80FB800C
:10E52000FE24EF24FE24233109F046C08114F0ECD0
:10E530009F06F3E0AF06B10470F423E0F401A0926B
:10E540005B0020935700E89507B600FCFDCF4FEF26
:10E55000941AA40AB40A8B85DE01119693018201F4
:10E560001B964C911B9790E0942B41E00C01F80115
:10E5700020935B0040935700E89511240E5F1F4FD6
:10E580002F4F3F4F82E0E81AF1081296E114F10490
:10E5900021F01A968C911A97E3CF95E0F2016092E0
:10E5A0005B0090935700E89507B600FCFDCF81E132
:10E5B00080935700E89533C0D301C201B695A79563
:10E5C000979587956C01FE013B96C15EDE4FF983FE
:10E5D000E883CF51D14000E010E00E151F05A9F0EF
:10E5E000C15EDE4FE881F981CF51D1406191C15EBA
:10E5F000DE4FF983E883CF51D140C8018C0D9D1DBA
:10E600000F9417F40F5F1F4FE8CF20E030E0000FAA
:10E61000111F221F331F040D151D261D371D1A82C1
:10E620002801390153C08A819B819827892798271F
:10E630008C010D5F1F4F1A822431C1F4DE01119647
:10E640006BBEF2012791369112962C931297FD0121
:10E65000349613963C93139722E0420E511C611C92
:10E66000711C02971296009759F72BC0FE01319644
:10E670009F01280F391FB301A20141BDC52ED62E1F
:10E68000E72EFF24C2BC4F5F5F4F6F4F7F4FF89A5A
:10E69000A0B5A28331962E173F0779F7AC01415000
:10E6A000510960E070E04F5F5F4F6F4F7F4F440E46
:10E6B000551E661E771EE3E0F0E0EC0FFD1FE80F2D
:10E6C000F91F1082C12C05C080EC8A83C12C02E0A6
:10E6D00010E08BE10F949DF0C25EDE4F8881CE5139
:10E6E000D1400F949DF0812F0F949DF0802F0F94B7
:10E6F0009DF085E1C25EDE4FD880CE51D140D82654
:10E70000D0268EE00F949DF0D126CE0101967C019B
:10E71000080F191F0E151F0591F0F70121917F01B8
:10E72000C15EDE4F2883CF51D140822F0F949DF0E0
:10E73000C15EDE4F4881CF51D140D426EBCF8D2D25
:10E740000F949DF0C25EDE4F8881CE51D1408F5F25
:10E75000C25EDE4F8883CE51D14085B1805885B9E5
:10E7600000E010E0CC2009F499CD82E60F949DF0F2
:10E7700089E70F949DF080E20F949DF083E70F945A
:10E780009DF081E60F949DF088E60F949DF08DE05A
:10E790000F949DF08AE00F949DF084E690E00F9432
:10E7A000A9F027982F9884E690E00F94A9F0000034
:10E7B0008091C0008D7F8093C00081E180935700DD
:10E7C000E895EE27FF270994FFCF8BE1D82E81E053
:10E7D00095CD80E093CD190186E090CDA1E21A2E6F
:10E7E000AA1BBB1BFD010DC0AA1FBB1FEE1FFF1FF5
:10E7F000A217B307E407F50720F0A21BB30BE40B45
:10E80000F50B661F771F881F991F1A9469F760958B
:10E810007095809590959B01AC01BD01CF01089545
:10E820006927962769277827872778270895262F2D
:10E83000F999FECF1FBA92BD81BD20BD0FB6F894E5
:0EE84000FA9AF99A0FBE01960895F894FFCF48
:04E84E000F020A00AB
:040000033000E000E9
:00000001FF
