:020000023000CC
:10E000000D9472F00D948EF00D948EF00D948EF0B0
:10E010000D948EF00D948EF00D948EF00D948EF084
:10E020000D948EF00D948EF00D948EF00D948EF074
:10E030000D948EF00D948EF00D948EF00D948EF064
:10E040000D948EF00D948EF00D948EF00D948EF054
:10E050000D948EF00D948EF00D948EF00D948EF044
:10E060000D948EF00D948EF00D948EF00D948EF034
:10E070000D948EF00D948EF00D948EF00D948EF024
:10E080000D948EF00D948EF00D948EF00D948EF014
:10E090000D948EF00D948EF00D948EF00D948EF004
:10E0A0000D948EF00D948EF00D948EF00D948EF0F4
:10E0B0000D948EF00D948EF00D948EF00D948EF0E4
:10E0C0000D948EF00D948EF00D948EF00D948EF0D4
:10E0D0000D948EF00D948EF00D948EF00D948EF0C4
:10E0E0000D948EF011241FBECFEFD1E2DEBFCDBF65
:10E0F00001E00CBF22E0A0E0B2E001C01D92A2301E
:10E10000B207E1F70F94ABF10D94EBF201E20EBF11
:10E110000FEF0DBF11241FBE0D94ABF10D9400F055
:10E1200020E030E02817390749F0EFECF7E03197AD
:10E13000F1F700C000002F5F3F4FF4CF089587E054
:10E1400084B981E58CBD08958EBD00000DB407FE35
:10E15000FDCF8EB50895289886E00F94A4F0289AF4
:10E1600085E38A95F1F700000895289886E60F94D4
:10E17000A4F0289A85E38A95F1F70000089528987D
:10E1800089E90F94A4F0289A85E38A95F1F70000B5
:10E190000895289885E00F94A4F08FEF80FF04C0C5
:10E1A00080E00F94A4F0FACF289A85E38A95F1F7DE
:10E1B00000000895CF92DF92EF92FF92209A289A62
:10E1C00085E38A95F1F700000F94C9F00F94B5F03C
:10E1D0000F94BFF028988FE90F94A4F080E00F947B
:10E1E000A4F0C82ED12CE12CF12C7601DD24CC2416
:10E1F00080E00F94A4F0D82A80E00F94A4F0289A2D
:10E20000C82A81E097E1C91690E4D9069FEEE90695
:10E21000F10409F080E0FF90EF90DF90CF90089537
:10E22000FF920F931F93CF93DF93162F072FF82E94
:10E23000EA01289883E00F94A4F08F2D0F94A4F0A6
:10E24000802F0F94A4F0812F0F94A4F080E00F94FE
:10E25000A4F08883289A85E38A95F1F70000DF917E
:10E26000CF911F910F91FF900895FF920F931F93ED
:10E27000CF93DF93EB01F82E8A01289883E00F9467
:10E28000A4F08F2D0F94A4F08D2F0F94A4F08C2F59
:10E290000F94A4F080E00F94A4F0C82F80E00F94B6
:10E2A000A4F0289A2C2F30E0322F2227282BF801B7
:10E2B00031832083F5E3FA95F1F70000DF91CF91E8
:10E2C0001F910F91FF9008950F931F93CF93DF93AA
:10E2D000D62F172F082FC42F0F94C9F00F94ABF02F
:10E2E000289882E00F94A4F0802F0F94A4F0812F3F
:10E2F0000F94A4F08D2F0F94A4F08C2F0F94A4F002
:10E30000289A85E38A95F1F70000DF91CF911F915C
:10E310000F910D94C9F01F93CF93DF93EB01182F4A
:10E320000F94C9F00F94ABF0289880E20F94A4F0FA
:10E33000812F0F94A4F08D2F0F94A4F08C2F0F94A5
:10E34000A4F0289A85E38A95F1F70000DF91CF9138
:10E350001F910D94C9F0CF93DF93CDB7DEB7C952AB
:10E36000D1400FB6F894DEBF0FBECDBF01E20EBFA5
:10E370000FEF0DBF94B7F894A89514BE809160007C
:10E3800088618093600010926000789493FF05C0CC
:10E39000E0910002F09101021995269A2E9A000050
:10E3A0000F949FF00F94DAF0882309F405C1CE5D35
:10E3B000DE4F19821882C252D140C05EDE4F1982F0
:10E3C0001882C052D1408E01025E1E4FF8011182A8
:10E3D0001082AE014E5D5E4F60E070E180E090E043
:10E3E0000F9435F1CE5DDE4F88819981C252D140C4
:10E3F0008332934209F0E0C0AE01405E5E4F62E0BE
:10E4000070E180E090E00F9435F1C12CD12C7601C1
:10E41000CA5DDE4F19821882C652D140812C31E18B
:10E42000932EA12CB12C412C40E2542E612C712C46
:10E430009E012F5F3E4FCC5DDE4F39832883C4524F
:10E44000D140C05EDE4F88819981C052D140CA5D03
:10E45000DE4FE881F981C652D140E817F90708F08C
:10E46000A5C0289883E00F94A4F0862D0F94A4F003
:10E47000852D0F94A4F080E00F94A4F0CE010196B6
:10E480001C01C85DDE4F99838883C852D14000E0EB
:10E4900010E080E00F94A4F0C85DDE4FE881F981C0
:10E4A000C852D1408193C85DDE4FF983E883C852DA
:10E4B000D140080F111DCC5DDE4F28813981C45237
:10E4C000D1402E173F0729F7289A3FEF531A630AC6
:10E4D000730A85E38A95F1F70000AE01425E5E4F54
:10E4E000C501B4010F9435F1C25EDE4F8881998178
:10E4F000CE51D1408017910709F04AC0C11490EC69
:10E50000D90693E0E906F10450F483E0F601E092C5
:10E510005B0080935700E89507B600FCFDCFB7017C
:10E52000A601F101818190E0982F88272081822B1C
:10E5300021E00C01FA0160935B0020935700E895FD
:10E5400011244E5F5F4F6F4F7F4F32E0230E311C1F
:10E55000CC5DDE4F88819981C452D14082159305EC
:10E5600001F795E0F601E0925B0090935700E89583
:10E5700007B600FCFDCFE1E1E0935700E895FFEF1F
:10E58000DF1AEF0AFF0A22E0820E911CA11CB11CC7
:10E59000CA5DDE4F88819981C652D1400196CA5D1D
:10E5A000DE4F99838883C652D1404BCF60E070E143
:10E5B00080E090E00F948BF126982E9884E690E00E
:10E5C0000F9490F0000081E180935700E895EE27CA
:0AE5D000FF270994FFCFF894FFCF56
:040000033000E000E9
:00000001FF
